:020000040800F2
:1000000000000220E5050008D1020008D702000820
:10001000DD020008E3020008E90200080000000019
:10002000000000000000000000000000EF020008D7
:10003000FD020008000000000B030008190300087F
:1000400035060008350600083506000835060008A4
:100050003506000835060008350600083506000894
:100060003506000835060008350600083506000884
:100070003506000835060008350600083506000874
:100080003506000835060008350600083506000864
:100090003506000835060008350600083506000854
:1000A0003506000835060008350600083506000844
:1000B0003506000835060008350600083506000834
:1000C0003506000835060008350600083506000824
:1000D0003506000835060008350600083506000814
:1000E0003506000835060008350600083506000804
:1000F00035060008350600083506000835060008F4
:1001000035060008350600083506000835060008E3
:1001100035060008350600083506000835060008D3
:1001200035060008350600083506000835060008C3
:1001300035060008350600083506000835060008B3
:1001400035060008350600083506000835060008A3
:100150003506000835060008350600083506000893
:100160003506000835060008350600083506000883
:1001700035060008350600083506000800000000B6
:080180003506000835060008F1
:1001880010B5054C237833B9044B13B10448AFF3C9
:1001980000800123237010BD0C0000200000000027
:1001A8008006000808B5034B1BB103490348AFF3A9
:1001B800008008BD00000000100000208006000834
:1001C80080B582B000AF00F0BFF800F031F800232E
:1001D8003B6000237B60144B1B6903F00103002B79
:1001E80009D000BF104B1B6903F00103002BF9D1A4
:1001F8007B6801337B607B6803F00103002B04D12B
:100208000A4B5B69094B00225A617B68002B03F09B
:100218000103B8BF5B42012BDDD1044A034B5B6984
:1002280043F400535361D6E700000240000C02403B
:1002380080B400AF0D4B09221A630D4B4FF0AA4250
:100248001A600B4B00225A60094B4FF07F429A60AC
:10025800074B0022DA60064B00225A61054B012247
:100268001A6100BFBD465DF8047B70470038024044
:10027800000C02400000024080B582B000AF0023AD
:100288007B60104A0F4B5B6C43F4804353640D4B07
:100298005B6C03F480437B607B6800233B60094A06
:1002A800084B1B6C43F080531364064B1B6C03F024
:1002B80080533B603B68072000F05CF900BF0837BB
:1002C800BD4680BD0038024080B400AFFEE780B470
:1002D80000AFFEE780B400AFFEE780B400AFFEE7F2
:1002E80080B400AFFEE780B400AF00BFBD465DF844
:1002F800047B704780B400AF00BFBD465DF8047B47
:10030800704780B400AF00BFBD465DF8047B7047FE
:1003180080B500AF00F06AF800BF80BD80B400AFC0
:10032800084A084BD3F8883043F47003C2F8883081
:10033800044B4FF000629A6000BFBD465DF8047B35
:10034800704700BF00ED00E080B500AF0E4A0E4BCD
:100358001B6843F4007313600B4A0B4B1B6843F490
:1003680080631360084A084B1B6843F4807313606A
:10037800032000F0FFF8002000F008F8FFF77CFFEA
:100388000023184680BD00BF003C024080B582B003
:1003980000AF7860124B1A68124B1B7819464FF45D
:1003A8007A73B3FBF1F3B2FBF3F3184600F009F9E3
:1003B8000346002B01D001230EE07B680F2B0AD8DF
:1003C800002279684FF0FF3000F0DFF8064A7B68BA
:1003D8001360002300E0012318460837BD4680BD9E
:1003E80000000020080000200400002080B400AFB6
:1003F800064B1B781A46064B1B681344044A1360C5
:1004080000BFBD465DF8047B704700BF08000020B0
:100418002800002080B485B000AF78607B6803F0C6
:100428000703FB600C4BDB68BB60BA684FF6FF0341
:100438001340BB60FB681A02BB68134343F0BF63F9
:1004480043F40033BB60044ABB68D36000BF143771
:10045800BD465DF8047B704700ED00E080B400AF56
:10046800044BDB681B0A03F007031846BD465DF81A
:10047800047B704700ED00E080B483B000AF034612
:100488003960FB7197F90730002B0ADB0D4997F9A2
:1004980007303A68D2B21201D2B20B4483F8002373
:1004A8000AE00949FB7903F00F03043B3A68D2B22A
:1004B8001201D2B20B441A7600BF0C37BD465DF864
:1004C800047B704700E100E000ED00E080B489B0F3
:1004D80000AFF860B9607A60FB6803F00703FB615E
:1004E800FB69C3F10703042B28BF0423BB61FB6925
:1004F8000433062B02D9FB69033B00E000237B6130
:100508000122BB6902FA03F35A1EBB681A407B69D1
:100518009A4001217B6901FA03F3591E7B680B405D
:10052800134318462437BD465DF8047B7047000026
:1005380080B582B000AF78607B68013BB3F1807F03
:1005480001D301230FE00A4A7B68013B53600F2166
:100558004FF0FF30FFF790FF054B00229A60044BE5
:1005680007221A60002318460837BD4680BD00BF21
:1005780010E000E080B582B000AF78607868FFF7DF
:1005880049FF00BF0837BD4680BD80B586B000AFC3
:100598000346B9607A60FB7300237B61FFF75EFF57
:1005A80078617A68B9687869FFF790FF024697F929
:1005B8000F3011461846FFF75FFF00BF1837BD46DA
:1005C80080BD80B582B000AF78607868FFF7B0FF73
:1005D800034618460837BD4680BD0000DFF834D012
:1005E800002103E00C4B5B58435004310B480C4B83
:1005F80042189A42F6D30B4A02E0002342F8043B21
:10060800094B9A42F9D3FFF789FE00F011F8FFF77A
:10061800D7FD704700000220A00600080000002057
:100628000C0000200C0000202C000020FEE7000039
:1006380070B50D4E0D4CA41BA4100025A54209D180
:100648000B4E0C4C00F018F8A41BA4100025A54272
:1006580005D170BD56F8253098470135EEE756F8B4
:10066800253098470135F2E79806000898060008F3
:10067800980600089C060008F8B500BFF8BC08BC3E
:100688009E467047F8B500BFF8BC08BC9E46704748
:04069800AD010008A8
:04069C0089010008C8
:0C06A0000024F400100000000100000025
:04000005080005E505
:00000001FF
